S01600004272616E6368696E675F436F64652E73726563A8
S31508000000005000206D0900081109000817090008AA
S315080000101D09000823090008290900080000000036
S315080000200000000000000000000000002F09000882
S315080000303B090008000000004709000853090008AA
S31508000040B5090008B5090008B5090008B50900088A
S31508000050B5090008B5090008B5090008B50900087A
S31508000060B5090008B5090008B5090008B50900086A
S31508000070B5090008B5090008B5090008B50900085A
S31508000080B5090008B5090008B5090008B50900084A
S31508000090B5090008B5090008B5090008B50900083A
S315080000A0B5090008B5090008B5090008B50900082A
S315080000B0B5090008B5090008B5090008B50900081A
S315080000C0B5090008B5090008B5090008B50900080A
S315080000D0B5090008B5090008B5090008B5090008FA
S315080000E0B5090008B5090008B509000800000000B0
S315080000F000000000000000000000000000000000F2
S3110800010000000000000000005FF808F195
S3150800010C10B5054C237833B9044B13B10448AFF337
S3150800011C00800123237010BD04000020000000009D
S3150800012C240A000808B5034B1BB103490348AFF36F
S3150800013C008008BD0000000008000020240A000802
S3150800014C80B500AF00F0D6F80021052000F0B6F90E
S3150800015C03461A46094B1A700221052000F0AEF91F
S3150800016C03461A46054B5A700121052000F0A6F9DC
S3150800017C03461A46014B9A7000BF80BD200000202A
S3150800018C80B500AF0B4B1B781A460021052000F0F2
S3150800019CD7F9084B5B781A460221052000F0D0F9EE
S315080001AC044B9B781A460121052000F0C9F900BFBB
S315080001BC80BD00BF2000002080B400AF044B054A68
S315080001CC5A60034B044A5A6000BFBD4680BC704750
S315080001DC0020024023016745AB89EFCD80B400AF00
S315080001EC044B1B69034A43F08003136100BFBD46E9
S315080001FC80BC70470020024080B400AF114BDB680E
S3150800020C1B0903F00103012B07D10E4BDB680D4AC2
S3150800021C43F01003D36001230FE00A4BDB689B08FD
S3150800022C03F00103012B07D1064BDB68054A43F0A3
S3150800023C0403D360002300E002231846BD4680BCA5
S3150800024C704700BF0020024080B584B000AF03465B
S3150800025CFB710B46BB8013467B80BB8803F00103FE
S3150800026C9BB2002B01D000233DE00223FB73FFF762
S3150800027CA3FF00BF1E4BDB6803F00103012BF9D06B
S3150800028C1B4B1B691A4A43F001031361FB799B024A
S3150800029C1A46BB88134403F10063BB60BB687A88B3
S315080002AC1A8000BF124BDB6803F00103012BF9D04F
S315080002BC0F4B1B690E4A23F001031361BA88FB79AD
S315080002CC1146184600F0D8F803461A467B8893421E
S315080002DC02D10223FB7303E0FFF78EFF0346FB7381
S315080002ECFFF77CFFFB7B18461037BD4680BD00BF69
S315080002FC0020024080B500AF042000F023FAFFF777
S3150800030C5BFF0B4B1B680A4A23F001031360084B6F
S3150800031C1B68074A43F002031360054B1B68044A23
S3150800032C23F004031360FFF759FF00BF80BD00BF1D
S3150800033C0020024080B584B000AF0346FB71FFF77E
S3150800034C3BFF00BF1F4BDB6803F00103012BF9D001
S3150800035C1C4B1B691B4A43F002031361FB799B0276
S3150800036C03F10063BB60174ABB685361154B1B69E5
S3150800037C144A43F04003136100BF124BDB6803F0C9
S3150800038C0103012BF9D00F4B1B690E4A23F002030C
S3150800039C1361FB790021184600F06EF803461A46DD
S315080003AC4FF6FF739A4202D10223FB7303E0FFF761
S315080003BC23FF0346FB73FFF711FFFB7B1846103729
S315080003CCBD4680BD0020024080B584B000AF034610
S315080003DC3960FB710223FB73FFF7EEFEFB791846B7
S315080003ECFFF7A8FF0346FB730023BB8114E0BB8908
S315080003FC5B007B81BB895B003A6813441A88798950
S3150800040CFB791846FFF720FF0346FB73FB7B022B91
S3150800041C07D1BB890133BB81BB89B3F5007FE6D312
S3150800042C00E000BFFFF7DAFEFB7B18461037BD4627
S3150800043C80BD90B585B000AF03463960FB710023CB
S3150800044CFB8111E0FB895B00BB81FB895B003A6889
S3150800045CD418BA89FB791146184600F00DF80346EC
S3150800046C2380FB890133FB81FB89B3F5007FE9D334
S3150800047C00BF1437BD4690BD80B485B000AF0346A7
S3150800048C0A46FB711346BB8000BF0B4BDB6803F0B7
S3150800049C0103012BF9D0FB799B021A46BB8813443E
S315080004AC03F10063FB60FB681B889BB21846143784
S315080004BCBD4680BC704700BF0020024080B582B0A4
S315080004CC00AF03460A46FB711346BB8000BF094BB7
S315080004DCDB6803F00103012BF9D0BA88FB791146C6
S315080004EC1846FFF7C9FF0346DBB218460837BD4660
S315080004FC80BD00BF0020024080B584B000AF034623
S3150800050C0A46FB711346BB71BB799AB2FB79114645
S3150800051C1846FFF7B1FF0346FB81BB799BB2023342
S3150800052C9AB2FB7911461846FFF7A6FF0346BB603D
S3150800053CFA89BB681B04134318461037BD4680BDA1
S3150800054C90B5ADF2144D00AF044608461146FB1D96
S3150800055C22461A703B1D02461A80BB1D0A461A70A3
S3150800056C07F10C02FB1D1B7811461846FFF761FFB5
S3150800057C3B1D1B885B089BB21A4607F10C0333F824
S3150800058C1230A7F80E343B1D1B8803F001039BB2EF
S3150800059C002B0ED1B7F80E3423F0FF03A7F80E3450
S315080005ACBB1D1B789AB2B7F80E341343A7F80E3452
S315080005BC0EE0B7F80E34DBB2A7F80E34BB1D1B7869
S315080005CC1B021AB2B7F90E3413431BB2A7F80E3432
S315080005DC3B1D1B885B089BB2194607F10C03B7F841
S315080005EC0E2423F81120FB1D1B781846FFF7A2FED4
S315080005FC034687F80D3497F80D34022B02D097F87A
S3150800060C0D3412E007F10C02FB1D1B781146184637
S3150800061CFFF7DAFE034687F80C3497F80C34022BEE
S3150800062C02D097F80C3400E00223184607F2144758
S3150800063CBD4690BD80B483B000AF03463960FB71EC
S3150800064C3B68C3F30803002B08D13A68064B1340E2
S3150800065CFA7952071146054A0B43936000BF0C37CB
S3150800066CBD4680BC704700BF00FEFF1F00ED00E0D2
S3150800067C80B485B000AF0346FB71FB79BB60BB68E1
S3150800068C83F311880123FB60FB6883F3108800BF92
S3150800069C1437BD4680BC704780B500AF284B012285
S315080006AC1A60274B00225A60254B4FF41F029A609A
S315080006BC042000F047F8FFF71DFE214B5B68204A23
S315080006CC43F4806353601E4B1B681D4A43F4002396
S315080006DC13601B4B1B681A4A43F48033136000BF24
S315080006EC174B1B685B0C03F00103002BF8D0144B5B
S315080006FC5B68134A43F480335360114B5B68104AAA
S3150800070C43F4E01353600E4B1B680D4A43F0807399
S3150800071C136000BF0A4B1B685B0E03F00103002B2A
S3150800072CF8D0074B5B68064A43F00203536000BFD8
S3150800073C034B5B6803F00C03082BF9D100BF80BD93
S3150800074C0010024080B483B000AF0346FB71FB79FE
S3150800075C1F2B09D8144B5A69FB79012101FA03F3AB
S3150800076C114913434B611AE0FB793F2B0AD80E4B00
S3150800077CDA69FB79203B012101FA03F30A49134391
S3150800078CCB610CE0FB795F2B09D8074B9A69FB798F
S3150800079C403B012101FA03F3034913438B6100BF64
S315080007AC0C37BD4680BC70470010024080B500AFC0
S315080007BC0120FFF75DFFFFF76FFFFFF7C1FC0A4B40
S315080007CC1B78412B02D100F011F802E000F054F826
S315080007DC00BF054B01229A7000F04EF8024B02221C
S315080007EC9A7000F049F8FEE72000002080B584B026
S315080007FC00AF204B41221A701E4B5B78012B02D09E
S3150800080C022B03D005E01C23FB7305E04E23FB7378
S3150800081C02E000F031F800BFFB7B04211846FFF715
S3150800082C6BFE0346BB60BB68B3F1FF3F02D100F019
S3150800083C23F81AE0FFF7A4FCFB7B9B0203F1006389
S3150800084C19460020FFF7F6FE00233B603B6883F34E
S3150800085C1488FB7B00211846FFF74EFE03467B6087
S3150800086C7B6883F30888BB68984700BF1037BD467A
S3150800087C80BD00BF2000002080B584B000AF204B9F
S3150800088C42221A701E4B9B78012B02D0022B03D0E6
S3150800089C05E00623FB7308E01123FB7305E0184BF0
S315080008AC01229A700623FB7300BFFB7B04211846B2
S315080008BCFFF722FE0346BB60BB68B3F1FF3F1AD0B5
S315080008CCFFF75EFCFB7B9B0203F1006319460020D5
S315080008DCFFF7B0FE00233B603B6883F31488FB7B71
S315080008EC00211846FFF708FE03467B607B6883F3F6
S315080008FC0888BB68984700BF1037BD4680BD00BF47
S3150800090C2000002080B400AFFEE780B400AFFEE7FD
S3150800091C80B400AFFEE780B400AFFEE780B400AF4A
S3150800092CFEE780B400AF00BFBD4680BC704780B4FC
S3150800093C00AF00BFBD4680BC704780B400AF00BF97
S3150800094CBD4680BC704780B500AF00F02FF800BFDD
S3150800095C80BD80B400AF00BFBD4680BC70470000A8
S3150800096C0C480D490D4A002302E0D458C4500433F0
S3150800097CC4188C42F9D30A4A0A4C002301E01360C6
S3150800098C0432A242FBD3FFF7E4FF00F021F8FFF78D
S3150800099C0DFF70470000002004000020440A0008E0
S315080009AC0400002028000020FEE7000080B400AFF9
S315080009BC054B1B781A46054B1B681344034A1360F0
S315080009CC00BFBD4680BC70470000002024000020F4
S315080009DC70B500250C4E0D4CA41BA410A54209D1CC
S315080009EC00F01AF800250A4E0A4CA41BA410A542BE
S315080009FC05D170BD56F8253098470135EEE756F8FF
S31508000A0C253098470135F2E73C0A00083C0A0008ED
S31508000A1C3C0A0008400A0008F8B500BFF8BC08BC38
S31508000A2C9E467047F8B500BFF8BC08BC9E46704792
S30908000A3C310100086E
S30908000A400D0100088E
S30908000A44010000009F
S7050800096D7C
