:020000040800F2
:101800000050002005300008232D0008292D000875
:101810002F2D0008352D00083B2D0008000000008A
:10182000000000000000000000000000412D000842
:101830004D2D000800000000592D0008652D0008FE
:101840004D3000084D3000084D3000084D30000884
:101850004D3000084D3000084D3000084D30000874
:101860004D3000084D3000084D3000084D30000864
:101870004D3000084D3000084D3000084D30000854
:101880004D3000084D3000084D3000084D30000844
:101890004D1900084D3000084D3000084D3000084B
:1018A0004D3000084D3000084D3000084D30000824
:1018B0004D3000084D3000084D3000084D30000814
:1018C0004D3000084D3000084D3000084D30000804
:1018D0004D3000084D3000084D3000084D300008F4
:1018E0004D3000084D3000084D3000080000000069
:1018F00000000000000000000000000000000000E8
:0C19000000000000000000005FF808F18B
:10190C0010B5054C237833B9044B13B10448AFF32D
:10191C0000800123237010BD100000200000000087
:10192C00CC30000808B5034B1BB103490348AFF397
:10193C00008008BD0000000014000020CC3000081E
:10194C0080B500AF044B1B68002B02D0024B1B6808
:10195C00984700BF80BD00BF2C00002080B586B02A
:10196C0000AF78605F4A7B681360392001F05CF946
:10197C00432001F059F9402001F056F9142001F0F0
:10198C0093F8594B1B68584A23F00203136000BFAD
:10199C00554B5B6803F00103012BF9D0524B1B68CC
:1019AC00514A43F00103136000BF4F4B5B6803F0D7
:1019BC000103002BF9D04C4B5B694B4A43F00203FB
:1019CC005361494BDB69484A23F00043D361464BD2
:1019DC00DB69454A23F08043D361434BDB69424AC0
:1019EC0003F07043D361404BDB693F4A43F0010382
:1019FC00D3613D4BDB693C4A43F00203D3613A4B64
:101A0C00DB69394A43F00403D361374BDB69364A4F
:101A1C0043F40033D361344BDB69334A43F4802302
:101A2C00D361314BDB69304A43F40023D3612E4B35
:101A3C00DB692D4A43F48013D3612B4BDB692A4AB3
:101A4C0043F08073D361284BD3F80032264A23F439
:101A5C007C53C2F80032244BD3F80032224A43F4B0
:101A6C006063C2F80032204B1B681F4A43F04003EE
:101A7C0013601D4B1B681C4A43F0040313601A4B84
:101A8C001B68194A23F00103136000BF164B5B68F7
:101A9C0003F00103012BF9D0144B5B68134A43F498
:101AAC0080435360124B1B687B61124B1B883B823B
:101ABC0007F1100207F114031146184600F0B8FFA5
:101ACC000D4B1B68FB600D4B1B883B8107F108021B
:101ADC0007F10C031146184600F0AAFF00BF183797
:101AEC00BD4680BD2C000020006400400000014079
:101AFC00E4300008E8300008EC300008F030000852
:101B0C0090B482B000AF78607B681B780D2B00F22C
:101B1C006282A94BD3F80032A74A43F00103C2F802
:101B2C000032A54BD3F81C227B681B781946012385
:101B3C008B40DB43A0491340C1F81C327B68DB7837
:101B4C00002B02D0012B0ED01AE09B4BD3F81422A1
:101B5C007B681B78194601238B40DB439649134065
:101B6C00C1F814320CE0944BD3F814227B681B7828
:101B7C00194601238B4090491343C1F8143200BF1E
:101B8C007B689B78002B00F00481012B40F00E82C7
:101B9C00894BD3F804227B681B78194601238B40B0
:101BAC00DB4385491340C1F804327B685B78002B1A
:101BBC0002D0012B57D0F9E17F4BD3F80C227B6874
:101BCC001B78194601238B40DB437B491340C1F83A
:101BDC000C327B685B7B1A017B685B685B0113438F
:101BEC007A68927B002A02D14FF4002200E0002296
:101BFC0013437A68D27B002A02D14FF4801200E0A2
:101C0C0000221A437B689B685B056B4879680978EE
:101C1C001A4301F1480340F833207B685B7E1A01BC
:101C2C007B681B695B0113437A68927E002A02D1A0
:101C3C004FF4002200E0002213437A68D27E002A7F
:101C4C0002D14FF4801200E000221A437B685B69DA
:101C5C005B055948796809781A4301F14803DB00A0
:101C6C0003445A6094E0544BD3F80C227B681B78E5
:101C7C00194601238B4050491343C1F80C327B6841
:101C8C005B7B5A007B681B7B9B0013434A497A6839
:101C9C001278104663F03F0200F1480341F83320FC
:101CAC007B68DB7B002B01D1022200E000227B68E9
:101CBC009B7B002B01D1042300E0002313433E49FE
:101CCC007A681278104663F03F0200F14803DB009B
:101CDC000B445A607B681B7B002B02D0012B2DD050
:101CEC0055E0354A7B681B78483352F833207B68C3
:101CFC005B685B056FEA53536FEA43532E48796870
:101D0C0009781A4001F1480340F833202A4A7B68CD
:101D1C001B784833DB0013445A687B689B685B056F
:101D2C006FEA53536FEA43532348796809781A4092
:101D3C0001F14803DB0003445A6028E01E4A7B682B
:101D4C001B78483352F833207B685B68DB0043F028
:101D5C0007031948796809781A4001F1480340F8DB
:101D6C003320154A7B681B784833DB0013445A68D0
:101D7C007B689B68DB0043F007030F4879680978A0
:101D8C001A4001F14803DB0003445A6000BF00BF56
:101D9C000CE1094BD3F804227B681B78194601230C
:101DAC008B4005491343C1F804327B685B78002BE8
:101DBC0004D0012B75D0F8E000640040884BD3F8B8
:101DCC000C227B681B78194601238B40DB4384492A
:101DDC001340C1F80C327B681B7BDA007B685B7BA1
:101DEC001B0113431C467B685B685B017C497A686A
:101DFC001278104644EA030200F1480341F83320FC
:101E0C00774A7B681B78483352F833207B681B7EFB
:101E1C00D9047B685B7E1B050B4319467B681B69E9
:101E2C005B050B436E48796809781A4301F1480346
:101E3C0040F833207B6893F82430DA007B6893F801
:101E4C0025301B0113431C467B68DB695B0164492D
:101E5C007A681278104644EA030200F14803DB006A
:101E6C000B445A605E4A7B681B784833DB00134492
:101E7C005A687B6893F83030D9047B6893F831301A
:101E8C001B050B4319467B689B6A5B050B43544847
:101E9C00796809781A4301F14803DB0003445A605E
:101EAC0083E04F4BD3F80C227B681B781946012337
:101EBC008B404B491343C1F80C327B685B7B5A0057
:101ECC007B681B7B9B004648796809781A4301F1B3
:101EDC00480340F833207B681B7B002B02D0012B7E
:101EEC0012D023E03E4A7B681B78483352F83320EB
:101EFC007B685B685B053A48796809781A4301F19D
:101F0C00480340F8332011E0354A7B681B7848338E
:101F1C0052F833207B685B68DB00314879680978BC
:101F2C001A4301F1480340F8332000BF7B685B7E05
:101F3C005A007B681B7E9B002948796809781A43F4
:101F4C0001F14803DB0003445A607B681B7E002BC5
:101F5C0002D0012B14D027E0214A7B681B78483330
:101F6C00DB0013445A687B681B695B051C48796865
:101F7C0009781A4301F14803DB0003445A6013E06B
:101F8C00174A7B681B784833DB0013445A687B681C
:101F9C001B69DB001248796809781A4301F1480380
:101FAC00DB0003445A6000BF00BF00BF0C4BD3F8EA
:101FBC001C227B681B78194601238B40084913436C
:101FCC00C1F81C32064BD3F80032054A23F001034A
:101FDC00C2F8003200E000BF0837BD4690BC704725
:101FEC000064004080B485B000AF786000BF784BCF
:101FFC009B689B0E03F00703002BF8D00023FB73A8
:10200C000023BB730FE0724B9A68BB7B1A3322FA26
:10201C0003F303F00103012B02D1BB7BFB7305E03F
:10202C00BB7B0133BB73BB7B022BECD9684AFB7BBC
:10203C001B01134403F5C47300221A6000237B7345
:10204C001BE0634AFB7B1B01134403F5C4731A6842
:10205C007B7B79680B44DB7919467B7BDB0001FACF
:10206C0003F318465A49FB7B02431B010B4403F54F
:10207C00C4731A607B7B01337B737B7B032BE0D9AE
:10208C00534AFB7B1B01134403F5C67300221A60F1
:10209C0000233B731CE04E4AFB7B1B01134403F5EE
:1020AC00C6731A683B7B043379680B44DB79194699
:1020BC003B7BDB0001FA03F318464549FB7B0243EB
:1020CC001B010B4403F5C6731A603B7B01333B7356
:1020DC003B7B032BDFD97B6899793D4AFB7B18331B
:1020EC001B011344043319607B685B795A007B68CD
:1020FC001B799B0042EA0301354AFB7B18331B0119
:10210C00134419607B681B79002B02D0012B11D072
:10211C0021E02F4AFB7B18331B01134419687B68A1
:10212C001B685A052A48FB7B0A4318331B010344DE
:10213C001A6010E0264AFB7B18331B011344196804
:10214C007B681B68DA002248FB7B0A4318331B01AF
:10215C0003441A6000BF7B685B79002B02D0012B13
:10216C0011D021E01A4AFB7B18331B011344196868
:10217C007B681B685A051648FB7B0A4318331B0106
:10218C0003441A6010E0124AFB7B18331B01134402
:10219C0019687B681B68DA000D48FB7B0A4318330F
:1021AC001B0103441A6000BF094AFB7B18331B0157
:1021BC0013441A680649FB7B42F0010218331B01D9
:1021CC000B441A6000BF1437BD4680BC704700BF7B
:1021DC000064004080B485B000AF78600B46FB70A3
:1021EC00FB78002B02D0012B08D00FE000BF574B1F
:1021FC00DB6803F00303002BF9D007E000BF534B5F
:10220C001B6903F00303002BF9D000BF4F4AFB7886
:10221C001B331B0113441B685B0803F00103002BE9
:10222C0002D0012B04D007E07B6800225A7103E036
:10223C007B6801225A7100BF444AFB781B331B0197
:10224C0013441B689B0803F00103002B02D0012BE5
:10225C0004D007E07B6800221A7103E07B6801223E
:10226C001A7100BF7B681B79002B02D0012B0AD09E
:10227C0013E0364AFB781B331B0113441B685A0DC1
:10228C007B681A6009E0314AFB781B331B0113444D
:10229C001B68DA087B681A6000BF2C4AFB781B337A
:1022AC001B01134404331B68DBB203F00F03DAB2D7
:1022BC007B689A710023FB7312E0244AFB781B01A4
:1022CC00134403F5DC731A68FB7BDB00DA40FB7B01
:1022DC00D1B27A6813440A46DA71FB7B0133FB7383
:1022EC00FB7B032BE9D90023BB7313E0174AFB7864
:1022FC001B01134403F5DE731A68BB7BDB00DA4069
:10230C00BB7B0433D1B27A6813440A46DA71BB7BC7
:10231C000133BB73BB7B032BE8D9FB78002B02D0BA
:10232C00012B07D00DE0094BDB68084A43F0200372
:10233C00D36006E0054B1B69044A43F0200313618C
:10234C0000BF00BF1437BD4680BC7047006400401E
:10235C0080B500AF074B1B781A460221052000F010
:10236C0003FA044B5B781A460121052000F0FCF9B6
:10237C0000BF80BD4400002080B500AF4122002189
:10238C00052000F0F1F900BF80BD000080B400AF63
:10239C00044B054A5A60034B044A5A6000BFBD46C1
:1023AC0080BC70470020024023016745AB89EFCD0C
:1023BC0080B400AF044B1B69034A43F080031361E4
:1023CC0000BFBD4680BC70470020024080B400AF07
:1023DC00114BDB681B0903F00103012B07D10E4BDA
:1023EC00DB680D4A43F01003D36001230FE00A4B66
:1023FC00DB689B0803F00103012B07D1064BDB685C
:10240C00054A43F00403D360002300E0022318467E
:10241C00BD4680BC704700BF0020024080B584B030
:10242C0000AF0346FB710B46BB8013467B80BB8819
:10243C0003F001039BB2002B01D000233DE00223EB
:10244C00FB73FFF7A3FF00BF1E4BDB6803F0010318
:10245C00012BF9D01B4B1B691A4A43F00103136182
:10246C00FB799B021A46BB88134403F10063BB60E3
:10247C00BB687A881A8000BF124BDB6803F001033B
:10248C00012BF9D00F4B1B690E4A23F0010313618A
:10249C00BA88FB791146184600F026F903461A460D
:1024AC007B88934202D10223FB7303E0FFF78EFF7C
:1024BC000346FB73FFF77CFFFB7B18461037BD46CA
:1024CC0080BD00BF0020024080B584B000AF034641
:1024DC00FB710B46BB801346BB710223FB73FFF7EA
:1024EC0055FF00BF1E4BDB6803F00103012BF9D035
:1024FC001B4B1B691A4A43F001031361FB799B02C6
:10250C001A46BB88134403F10063BB60BB68BA79FD
:10251C001A7000BF124BDB6803F00103012BF9D0DA
:10252C000F4B1B690E4A23F001031361BA88FB7928
:10253C001146184600F0FAF803461A46BB79934246
:10254C0002D10223FB7303E0FFF740FF0346FB734A
:10255C00FFF72EFFFB7B18461037BD4680BD00BF32
:10256C000020024080B500AF042000F05DFBFFF7B7
:10257C000DFF0B4B1B680A4A23F001031360084B39
:10258C001B68074A43F002031360054B1B68044A9F
:10259C0023F004031360FFF70BFF00BF80BD00BFE7
:1025AC000020024080B584B000AF0346FB71FFF7FA
:1025BC00EDFE00BF1F4BDB6803F00103012BF9D0CC
:1025CC001C4B1B691B4A43F002031361FB799B02F2
:1025DC0003F10063BB60174ABB685361154B1B6961
:1025EC00144A43F04003136100BF124BDB6803F045
:1025FC000103012BF9D00F4B1B690E4A23F0020388
:10260C001361FB790021184600F06EF803461A4658
:10261C004FF6FF739A4202D10223FB7303E0FFF7DC
:10262C00D5FE0346FB73FFF7C3FEFB7B1846103742
:10263C00BD4680BD0020024080B584B000AF03468B
:10264C003960FB710223FB73FFF7A0FEFB79184680
:10265C00FFF7A8FF0346FB730023BB8114E0BB8983
:10266C005B007B81BB895B003A6813441A887989CB
:10267C00FB791846FFF7D2FE0346FB73FB7B022B5C
:10268C0007D1BB890133BB81BB89B3F5007FE6D38E
:10269C0000E000BFFFF78CFEFB7B18461037BD46F1
:1026AC0080BD90B585B000AF03463960FB71002347
:1026BC00FB8111E0FB895B00BB81FB895B003A6805
:1026CC00D418BA89FB791146184600F00DF8034668
:1026DC002380FB890133FB81FB89B3F5007FE9D3B0
:1026EC0000BF1437BD4690BD80B485B000AF034623
:1026FC000A46FB711346BB8000BF0B4BDB6803F033
:10270C000103012BF9D0FB799B021A46BB881344B9
:10271C0003F10063FB60FB681B889BB218461437FF
:10272C00BD4680BC704700BF0020024080B582B01F
:10273C0000AF03460A46FB711346BB8000BF094B32
:10274C00DB6803F00103012BF9D0BA88FB79114641
:10275C001846FFF7C9FF0346DBB218460837BD46DB
:10276C0080BD00BF0020024090B5ADF2144D00AF0B
:10277C00044608461146FB1D22461A703B1D0246B4
:10278C001A80BB1D0A461A7007F10C02FB1D1B7840
:10279C0011461846FFF785FF3B1D1B885B089BB253
:1027AC001A4607F10C0333F81230A7F80E343B1D10
:1027BC001B8803F001039BB2002B0ED1B7F80E342B
:1027CC0023F0FF03A7F80E34BB1D1B789AB2B7F8A1
:1027DC000E341343A7F80E340EE0B7F80E34DBB208
:1027EC00A7F80E34BB1D1B781B021AB2B7F90E34B6
:1027FC0013431BB2A7F80E343B1D1B885B089BB21E
:10280C00194607F10C03B7F80E2423F81120FB1D11
:10281C001B781846FFF7C6FE034687F80D3497F869
:10282C000D34022B02D097F80D3412E007F10C0294
:10283C00FB1D1B7811461846FFF7FEFE034687F872
:10284C000C3497F80C34022B02D097F80C3400E0BF
:10285C000223184607F21447BD4690BD90B583B0CD
:10286C0000AF786039607B685B88072B13D87B6876
:10287C001B781A462D4B53F822301A687B681B784C
:10288C0019462A4B53F821403968786800F050F803
:10289C000346236022E07B685B880F2B1ED87B6885
:1028AC005B88083B9AB27B685A807B681B781A4617
:1028BC001E4B53F822305A687B681B7819461B4B09
:1028CC0053F821403968786800F032F803466360A9
:1028DC007B685B8808339AB27B685A803B681B78AC
:1028EC00022B02D0032B0ED01BE07B685B881A46B0
:1028FC00012303FA02F27B681B7819460B4B53F841
:10290C0021301A610DE07B685B881A46012303FABB
:10291C0002F27B681B781946044B53F821305A613C
:10292C0000BF00BF0C37BD4690BD00BF00000020AB
:10293C0080B487B000AFF860B9607A607B687B6167
:10294C00FB685B889B000F2202FA03F3DB437A6976
:10295C0013407B61BB681B78072B33D801A252F85C
:10296C0023F000BFD129000891290008BB290008D9
:10297C00BB29000891290008D1290008BB290008AF
:10298C00A7290008FB685B889B000233012202FA2E
:10299C0003F37A6913437B6115E0FB685B889B004A
:1029AC000233012202FA03F37A6913437B61FB6859
:1029BC005B889B000333012202FA03F37A69134309
:1029CC007B6100E000BFBB681B78043B032B27D85E
:1029DC00BB685B78012B17D0022B0CD0002B00D0DE
:1029EC001DE0FB685B889B00012202FA03F37A6905
:1029FC0013437B6113E0FB685B889B00012202FAA6
:102A0C0003F37A6913437B61FB685B889B0001339A
:102A1C00012202FA03F37A6913437B6100BF00E0E1
:102A2C0000BF7B6918461C37BD4680BC704700BF91
:102A3C0080B584B000AF786039607B681B783B72DE
:102A4C003B7A012B07D0022B09D0002B0BD1422053
:102A5C0000F0EAF807E0432000F0E6F803E0442039
:102A6C0000F0E2F800BF0023FB7315E07B685B8885
:102A7C001A46FB7B42FA03F303F00103002B08D147
:102A8C00FB7B9BB27B8107F1080339681846FFF783
:102A9C00E5FEFB7B0133FB73FB7B0F2BE6D900BF01
:102AAC001037BD4680BD000080B483B000AF034634
:102ABC00FB7197F90730002B0DDBFB7903F01F033B
:102ACC00012202FA03F1134A97F907305B115BB24A
:102ADC0042F8231019E097F9073013F10C0F09D0C5
:102AEC0097F9073013F10B0F04D097F9073013F156
:102AFC000A0F0AD1084B5A6A97F907301C33012187
:102B0C0001FA03F3044913434B6200BF0C37BD4673
:102B1C0080BC704700E100E000ED00E080B400AF45
:102B2C00034B044ADA6000BFBD4680BC704700BF4F
:102B3C0000ED00E00400FA0580B485B000AF034658
:102B4C00FB71FB79BB60BB6883F311880123FB60CD
:102B5C00FB6883F3108800BF1437BD4680BC7047F8
:102B6C0080B483B000AF00237B607B6883F3108854
:102B7C0000BF0C37BD4680BC7047000080B500AF6D
:102B8C00284B01221A60274B00225A60254B4FF428
:102B9C001F029A60042000F047F8FFF7E3FC214B7A
:102BAC005B68204A43F4806353601E4B1B681D4ACC
:102BBC0043F4002313601B4B1B681A4A43F4803305
:102BCC00136000BF174B1B685B0C03F00103002B59
:102BDC00F8D0144B5B68134A43F480335360114BA9
:102BEC005B68104A43F4E01353600E4B1B680D4AAC
:102BFC0043F08073136000BF0A4B1B685B0E03F03D
:102C0C000103002BF8D0074B5B68064A43F0020324
:102C1C00536000BF034B5B6803F00C03082BF9D126
:102C2C0000BF80BD0010024080B483B000AF0346EB
:102C3C00FB71FB791F2B09D8144B5A69FB790121C5
:102C4C0001FA03F3114913434B611AE0FB793F2B53
:102C5C000AD80E4BDA69FB79203B012101FA03F308
:102C6C000A491343CB610CE0FB795F2B09D8074B66
:102C7C009A69FB79403B012101FA03F303491343A1
:102C8C008B6100BF0C37BD4680BC70470010024002
:102C9C0080B582B000AFFFF771FF00F0B3F8FFF71B
:102CAC005FFFBB1D184600F0D1F80346FB71FB79A2
:102CBC00012B1FD1BB79412B02D0422B0CD017E03A
:102CCC000E4B1B78012B03D10C4B02221A700FE018
:102CDC000A4B01221A700BE0084B5B78012B03D1D5
:102CEC00064B02225A7002E0044B01225A7000BFBC
:102CFC00FFF72EFB00F004F8FEE700BF44000020B5
:102D0C0080B500AFFFF738FB0020FFF715FFFFF78A
:102D1C0005FF00BF80BD80B400AFFEE780B400AFFC
:102D2C00FEE780B400AFFEE780B400AFFEE780B4EE
:102D3C0000AFFEE780B400AF00BFBD4680BC70475B
:102D4C0080B400AF00BFBD4680BC704780B400AFFC
:102D5C0000BFBD4680BC704780B500AF00F072F973
:102D6C0000BF80BD80B400AF00BFBD4680BC7047C3
:102D7C0080B500AF00210448FFF72CFA034B012269
:102D8C001A7000BF80BD00BF300000204000002042
:102D9C0080B483B000AF6FF070437B6002E07B685F
:102DAC00013B7B60154B1B78002B02D17B68002B01
:102DBC00F5D1124B1B78002B01D1002319E00F4BDE
:102DCC0000221A700E4B1B79002B01D0002310E04F
:102DDC000B4B1B68512B05D0094B1B68502B01D09A
:102DEC00002306E0064B5B79002B01D0002300E0AA
:102DFC00012318460C37BD4680BC704740000020AC
:102E0C003000002080B58EB000AF3920FFF70CFFEA
:102E1C000D48FEF7A3FD3B1D34220021184600F09F
:102E2C0047F901233B715023BB6051237B61512334
:102E3C003B625123FB623B1D1846FEF761FE00BF4F
:102E4C003837BD4680BD00BF7D2D000880B58AB0E7
:102E5C0000AF786007F1080300221A605A609A608C
:102E6C00DA605123BB600123BB734123FB7307F171
:102E7C0008031846FFF7B6F8FFF78AFF0346BB773F
:102E8C00BB7F002B01D10023AFE05A4B9B79012B68
:102E9C0001D00023A9E0574BDA797B681A707B6864
:102EAC001B78412B05D07B681B78422B01D000236B
:102EBC009BE000237B7793E007F108031846FFF7AC
:102ECC0091F8FFF765FF0346BB77BB7F002B08D15A
:102EDC004E23FB7307F108031846FFF783F8002312
:102EEC0083E0444B1B68512B0AD1424BDB79002BFE
:102EFC0003D0404BDB79012B02D13E4BDB7974E0E4
:102F0C003C4B9B79042B08D84E23FB7307F1080329
:102F1C001846FFF767F8002367E000237B62002365
:102F2C0087F8233012E097F82330324A1344DB79C8
:102F3C001A4697F82330DB0002FA03F37A6A13433C
:102F4C007B6297F82330013387F8233097F82330CE
:102F5C00032BE8D97B6A9BB2C3F309033B847B6ADE
:102F6C0003F178439B0A7B833B8C002B12D17B8B28
:102F7C00DBB21846FFF716FB03467B767B7E022BF3
:102F8C0008D04E23FB7307F108031846FFF72AF805
:102F9C0000232AE00423FB771DE07B8BD8B2FB7F58
:102FAC00144A1344DA793B8C1946FFF78DFA034621
:102FBC007B763B8C01333B847B7E022B08D04E23EB
:102FCC00FB7307F108031846FFF70CF800230CE01D
:102FDC00FB7F0133FB77074B9B79FA7F9A42DCD35B
:102FEC007B7F002B3FF468AF012318462837BD4682
:102FFC0080BD00BF300000200C480D490D4A002355
:10300C0002E0D458C4500433C4188C42F9D30A4A91
:10301C000A4C002301E013600432A242FBD3FFF7F9
:10302C00A1FE00F021F8FFF733FE704700000020EE
:10303C0010000020FC300008100000204C00002084
:10304C00FEE7000080B400AF054B1B781A46054B19
:10305C001B681344034A136000BFBD4680BC704715
:10306C000C0000204800002070B500250C4E0D4CC3
:10307C00A41BA410A54209D100F022F800250A4E89
:10308C000A4CA41BA410A54205D170BD56F82530DE
:10309C0098470135EEE756F8253098470135F2E7A9
:1030AC00F4300008F4300008F4300008F830000860
:1030BC0003460244934200D1704703F8011BF9E721
:1030CC00F8B500BFF8BC08BC9E467047F8B500BF09
:0830DC00F8BC08BC9E467047D9
:1030E4000100FFFD060200000100FFFE02020000D5
:0430F4003119000886
:0430F8000D190008A6
:1030FC0000080140000C01400010014001000000DC
:0400000508003005BA
:00000001FF
